{
  "_format": "hh-sol-artifact-1",
  "contractName": "demo",
  "sourceName": "contracts/crowdFunding.sol",
  "abi": [
    {
      "inputs": [],
      "stateMutability": "nonpayable",
      "type": "constructor"
    },
    {
      "inputs": [
        {
          "internalType": "string",
          "name": "name",
          "type": "string"
        },
        {
          "internalType": "string",
          "name": "message",
          "type": "string"
        }
      ],
      "name": "buyCofee",
      "outputs": [],
      "stateMutability": "payable",
      "type": "function"
    },
    {
      "inputs": [],
      "name": "getMemos",
      "outputs": [
        {
          "components": [
            {
              "internalType": "string",
              "name": "name",
              "type": "string"
            },
            {
              "internalType": "string",
              "name": "message",
              "type": "string"
            },
            {
              "internalType": "address",
              "name": "from",
              "type": "address"
            },
            {
              "internalType": "uint256",
              "name": "timestamp",
              "type": "uint256"
            },
            {
              "internalType": "uint256",
              "name": "amount",
              "type": "uint256"
            }
          ],
          "internalType": "struct demo.Memo[]",
          "name": "",
          "type": "tuple[]"
        }
      ],
      "stateMutability": "view",
      "type": "function"
    },
    {
      "inputs": [],
      "name": "getTotalDonation",
      "outputs": [
        {
          "internalType": "uint256",
          "name": "",
          "type": "uint256"
        }
      ],
      "stateMutability": "view",
      "type": "function"
    },
    {
      "inputs": [],
      "name": "totalDonation",
      "outputs": [
        {
          "internalType": "uint256",
          "name": "",
          "type": "uint256"
        }
      ],
      "stateMutability": "view",
      "type": "function"
    }
  ],
  "bytecode": "0x608060405234801561001057600080fd5b5033600160006101000a81548173ffffffffffffffffffffffffffffffffffffffff021916908373ffffffffffffffffffffffffffffffffffffffff160217905550610bdb806100616000396000f3fe60806040526004361061003f5760003560e01c806356e23eb114610044578063683887a31461006f578063865c51721461008b578063ee2ac05f146100b6575b600080fd5b34801561005057600080fd5b506100596100e1565b60405161006691906105a4565b60405180910390f35b61008960048036038101906100849190610719565b610146565b005b34801561009757600080fd5b506100a06102f5565b6040516100ad91906109a8565b60405180910390f35b3480156100c257600080fd5b506100cb6104e2565b6040516100d891906105a4565b60405180910390f35b6000806000905060005b60008054905081101561013e576000818154811061010c5761010b6109ca565b5b906000526020600020906005020160040154826101299190610a28565b9150808061013690610a7e565b9150506100eb565b508091505090565b60003411610189576040517f08c379a000000000000000000000000000000000000000000000000000000000815260040161018090610b24565b60405180910390fd5b600160009054906101000a900473ffffffffffffffffffffffffffffffffffffffff1673ffffffffffffffffffffffffffffffffffffffff166108fc349081150290604051600060405180830381858888f193505050501580156101f1573d6000803e3d6000fd5b5060006040518060a001604052808481526020018381526020013373ffffffffffffffffffffffffffffffffffffffff16815260200142815260200134815250908060018154018082558091505060019003906000526020600020906005020160009091909190915060008201518160000190805190602001906102769291906104e8565b5060208201518160010190805190602001906102939291906104e8565b5060408201518160020160006101000a81548173ffffffffffffffffffffffffffffffffffffffff021916908373ffffffffffffffffffffffffffffffffffffffff160217905550606082015181600301556080820151816004015550505050565b60606000805480602002602001604051908101604052809291908181526020016000905b828210156104d957838290600052602060002090600502016040518060a001604052908160008201805461034c90610b73565b80601f016020809104026020016040519081016040528092919081815260200182805461037890610b73565b80156103c55780601f1061039a576101008083540402835291602001916103c5565b820191906000526020600020905b8154815290600101906020018083116103a857829003601f168201915b505050505081526020016001820180546103de90610b73565b80601f016020809104026020016040519081016040528092919081815260200182805461040a90610b73565b80156104575780601f1061042c57610100808354040283529160200191610457565b820191906000526020600020905b81548152906001019060200180831161043a57829003601f168201915b505050505081526020016002820160009054906101000a900473ffffffffffffffffffffffffffffffffffffffff1673ffffffffffffffffffffffffffffffffffffffff1673ffffffffffffffffffffffffffffffffffffffff1681526020016003820154815260200160048201548152505081526020019060010190610319565b50505050905090565b60025481565b8280546104f490610b73565b90600052602060002090601f016020900481019282610516576000855561055d565b82601f1061052f57805160ff191683800117855561055d565b8280016001018555821561055d579182015b8281111561055c578251825591602001919060010190610541565b5b50905061056a919061056e565b5090565b5b8082111561058757600081600090555060010161056f565b5090565b6000819050919050565b61059e8161058b565b82525050565b60006020820190506105b96000830184610595565b92915050565b6000604051905090565b600080fd5b600080fd5b600080fd5b600080fd5b6000601f19601f8301169050919050565b7f4e487b7100000000000000000000000000000000000000000000000000000000600052604160045260246000fd5b610626826105dd565b810181811067ffffffffffffffff82111715610645576106446105ee565b5b80604052505050565b60006106586105bf565b9050610664828261061d565b919050565b600067ffffffffffffffff821115610684576106836105ee565b5b61068d826105dd565b9050602081019050919050565b82818337600083830152505050565b60006106bc6106b784610669565b61064e565b9050828152602081018484840111156106d8576106d76105d8565b5b6106e384828561069a565b509392505050565b600082601f830112610700576106ff6105d3565b5b81356107108482602086016106a9565b91505092915050565b600080604083850312156107305761072f6105c9565b5b600083013567ffffffffffffffff81111561074e5761074d6105ce565b5b61075a858286016106eb565b925050602083013567ffffffffffffffff81111561077b5761077a6105ce565b5b610787858286016106eb565b9150509250929050565b600081519050919050565b600082825260208201905092915050565b6000819050602082019050919050565b600081519050919050565b600082825260208201905092915050565b60005b838110156107f75780820151818401526020810190506107dc565b83811115610806576000848401525b50505050565b6000610817826107bd565b61082181856107c8565b93506108318185602086016107d9565b61083a816105dd565b840191505092915050565b600073ffffffffffffffffffffffffffffffffffffffff82169050919050565b600061087082610845565b9050919050565b61088081610865565b82525050565b61088f8161058b565b82525050565b600060a08301600083015184820360008601526108b2828261080c565b915050602083015184820360208601526108cc828261080c565b91505060408301516108e16040860182610877565b5060608301516108f46060860182610886565b5060808301516109076080860182610886565b508091505092915050565b600061091e8383610895565b905092915050565b6000602082019050919050565b600061093e82610791565b610948818561079c565b93508360208202850161095a856107ad565b8060005b8581101561099657848403895281516109778582610912565b945061098283610926565b925060208a0199505060018101905061095e565b50829750879550505050505092915050565b600060208201905081810360008301526109c28184610933565b905092915050565b7f4e487b7100000000000000000000000000000000000000000000000000000000600052603260045260246000fd5b7f4e487b7100000000000000000000000000000000000000000000000000000000600052601160045260246000fd5b6000610a338261058b565b9150610a3e8361058b565b9250827fffffffffffffffffffffffffffffffffffffffffffffffffffffffffffffffff03821115610a7357610a726109f9565b5b828201905092915050565b6000610a898261058b565b91507fffffffffffffffffffffffffffffffffffffffffffffffffffffffffffffffff821415610abc57610abb6109f9565b5b600182019050919050565b600082825260208201905092915050565b7f506c656173652073656e64206d6f7265207468616e2030204574680000000000600082015250565b6000610b0e601b83610ac7565b9150610b1982610ad8565b602082019050919050565b60006020820190508181036000830152610b3d81610b01565b9050919050565b7f4e487b7100000000000000000000000000000000000000000000000000000000600052602260045260246000fd5b60006002820490506001821680610b8b57607f821691505b60208210811415610b9f57610b9e610b44565b5b5091905056fea2646970667358221220a8cb8214407e3113a1b497f77e718dcd88530bf4de97ee21cc7b95aacce084b164736f6c63430008090033",
  "linkReferences": {},
  "deployedLinkReferences": {}
}